:020000040000FA
:060000008A110A12052816
:04000600003400348E
:06000A008A110A121B20FE
:100010008B13831603130C140B1775208312031311
:100020009F149F181128831203131E08F0008320C9
:100030009020A62008287130831603138F00073004
:100040008316031381004030831203138500FF30B1
:100050008316031788003F30831603138500831629
:10006000031789012030831203138600DF308316C3
:10007000031386001F3083160313950006088312AE
:1000800003130B100F308316031396008312031310
:100090008B15831203138701FB308316031387002C
:1000A000831203138801F030831603138800831230
:1000B00003138901831203132E30900099308312A9
:1000C00003139F00831603139F0124308316031329
:1000D000980090308312031398008316031787014A
:1000E00019308316031399000800831203131014A8
:1000F000831203138811630083120313881583127C
:1001000003130C1008001F30F0020310F00DF10172
:1001100003307002031C8F28F000F10A88280800C1
:10012000F0010A307102031C9828F100F00A9128AE
:1001300030307007F30030307107F4002030F500E4
:100140004330F6000A30F70005300800F200733043
:100150008400720803190800000883120313990031
:10016000840A83160313981CB128F20BA9280800EF
:02400E00F42F8D
:02401000FF3E71
:00000001FF
